{
  "contractName": "allocate",
  "abi": [
    {
      "constant": true,
      "inputs": [
        {
          "name": "",
          "type": "address"
        }
      ],
      "name": "count",
      "outputs": [
        {
          "name": "",
          "type": "uint256"
        }
      ],
      "payable": false,
      "stateMutability": "view",
      "type": "function"
    },
    {
      "inputs": [],
      "payable": true,
      "stateMutability": "payable",
      "type": "constructor"
    },
    {
      "payable": true,
      "stateMutability": "payable",
      "type": "fallback"
    },
    {
      "constant": false,
      "inputs": [
        {
          "name": "x",
          "type": "address"
        }
      ],
      "name": "upVote",
      "outputs": [],
      "payable": false,
      "stateMutability": "nonpayable",
      "type": "function"
    },
    {
      "constant": true,
      "inputs": [
        {
          "name": "x",
          "type": "address"
        }
      ],
      "name": "getUpVote",
      "outputs": [
        {
          "name": "",
          "type": "uint256"
        }
      ],
      "payable": false,
      "stateMutability": "view",
      "type": "function"
    },
    {
      "constant": false,
      "inputs": [
        {
          "name": "x",
          "type": "address"
        }
      ],
      "name": "grant",
      "outputs": [],
      "payable": false,
      "stateMutability": "nonpayable",
      "type": "function"
    },
    {
      "constant": true,
      "inputs": [],
      "name": "getBalance",
      "outputs": [
        {
          "name": "",
          "type": "uint256"
        }
      ],
      "payable": false,
      "stateMutability": "view",
      "type": "function"
    },
    {
      "constant": false,
      "inputs": [
        {
          "name": "x",
          "type": "string"
        },
        {
          "name": "y",
          "type": "string"
        },
        {
          "name": "z",
          "type": "address"
        }
      ],
      "name": "set",
      "outputs": [],
      "payable": false,
      "stateMutability": "nonpayable",
      "type": "function"
    },
    {
      "constant": true,
      "inputs": [],
      "name": "get",
      "outputs": [
        {
          "name": "",
          "type": "string[]"
        },
        {
          "name": "",
          "type": "string[]"
        },
        {
          "name": "",
          "type": "address[]"
        }
      ],
      "payable": false,
      "stateMutability": "view",
      "type": "function"
    },
    {
      "constant": true,
      "inputs": [],
      "name": "length",
      "outputs": [
        {
          "name": "",
          "type": "uint256"
        }
      ],
      "payable": false,
      "stateMutability": "view",
      "type": "function"
    }
  ],
  "bytecode": "0x608060405260405180606001604052806040518060600160405280602e8152602001620010c3602e913981526020016040518060600160405280602e81526020016200111f602e913981526020016040518060600160405280602e8152602001620010f1602e913981525060009060036200007c9291906200023e565b5060405180606001604052806040518060400160405280600781526020017f706572666563740000000000000000000000000000000000000000000000000081525081526020016040518060400160405280600481526020017f686f6d650000000000000000000000000000000000000000000000000000000081525081526020016040518060400160405280600981526020017f7375727669766f727300000000000000000000000000000000000000000000008152508152506001906003620001499291906200023e565b50604051806060016040528073edc30bb67af5c126af1400991fa6d2f4b4760b5c73ffffffffffffffffffffffffffffffffffffffff1673ffffffffffffffffffffffffffffffffffffffff16815260200173d267cb5e20050289a893f2a832bd5d6ddbe0882073ffffffffffffffffffffffffffffffffffffffff1673ffffffffffffffffffffffffffffffffffffffff1681526020017386ded0814431e6dbaa3c86b32094613f3ed9f3a073ffffffffffffffffffffffffffffffffffffffff1673ffffffffffffffffffffffffffffffffffffffff16815250600290600362000237929190620002a5565b50620004a6565b82805482825590600052602060002090810192821562000292579160200282015b82811115620002915782518290805190602001906200028092919062000334565b50916020019190600101906200025f565b5b509050620002a19190620003bb565b5090565b82805482825590600052602060002090810192821562000321579160200282015b82811115620003205782518260006101000a81548173ffffffffffffffffffffffffffffffffffffffff021916908373ffffffffffffffffffffffffffffffffffffffff16021790555091602001919060010190620002c6565b5b509050620003309190620003ec565b5090565b828054600181600116156101000203166002900490600052602060002090601f016020900481019282601f106200037757805160ff1916838001178555620003a8565b82800160010185558215620003a8579182015b82811115620003a75782518255916020019190600101906200038a565b5b509050620003b7919062000432565b5090565b620003e991905b80821115620003e55760008181620003db91906200045a565b50600101620003c2565b5090565b90565b6200042f91905b808211156200042b57600081816101000a81549073ffffffffffffffffffffffffffffffffffffffff021916905550600101620003f3565b5090565b90565b6200045791905b808211156200045357600081600090555060010162000439565b5090565b90565b50805460018160011615610100020316600290046000825580601f10620004825750620004a3565b601f016020900490600052602060002090810190620004a2919062000432565b5b50565b610c0d80620004b66000396000f3fe60806040526004361061007b5760003560e01c806370284d191161004e57806370284d191461013d578063bcc708bd14610166578063e42f70b81461018f578063fcfe6344146101b85761007b565b806305d85eda1461007d57806312065fe0146100ba5780631f7b6d32146100e55780636d4ce63c14610110575b005b34801561008957600080fd5b506100a4600480360361009f9190810190610795565b6101f5565b6040516100b19190610a08565b60405180910390f35b3480156100c657600080fd5b506100cf61020d565b6040516100dc9190610a08565b60405180910390f35b3480156100f157600080fd5b506100fa61022c565b6040516101079190610a08565b60405180910390f35b34801561011c57600080fd5b50610125610238565b604051610134939291906109bc565b60405180910390f35b34801561014957600080fd5b50610164600480360361015f91908101906107be565b61049c565b005b34801561017257600080fd5b5061018d600480360361018891908101906107e7565b6104ee565b005b34801561019b57600080fd5b506101b660048036036101b19190810190610795565b6105d7565b005b3480156101c457600080fd5b506101df60048036036101da9190810190610795565b610629565b6040516101ec9190610a08565b60405180910390f35b60036020528060005260406000206000915090505481565b60003073ffffffffffffffffffffffffffffffffffffffff1631905090565b60008080549050905090565b606080606060006001600282805480602002602001604051908101604052809291908181526020016000905b82821015610320578382906000526020600020018054600181600116156101000203166002900480601f01602080910402602001604051908101604052809291908181526020018280546001816001161561010002031660029004801561030c5780601f106102e15761010080835404028352916020019161030c565b820191906000526020600020905b8154815290600101906020018083116102ef57829003601f168201915b505050505081526020019060010190610264565b50505050925081805480602002602001604051908101604052809291908181526020016000905b82821015610403578382906000526020600020018054600181600116156101000203166002900480601f0160208091040260200160405190810160405280929190818152602001828054600181600116156101000203166002900480156103ef5780601f106103c4576101008083540402835291602001916103ef565b820191906000526020600020905b8154815290600101906020018083116103d257829003601f168201915b505050505081526020019060010190610347565b5050505091508080548060200260200160405190810160405280929190818152602001828054801561048a57602002820191906000526020600020905b8160009054906101000a900473ffffffffffffffffffffffffffffffffffffffff1673ffffffffffffffffffffffffffffffffffffffff1681526020019060010190808311610440575b50505050509050925092509250909192565b8073ffffffffffffffffffffffffffffffffffffffff166108fc670de0b6b3a76400009081150290604051600060405180830381858888f193505050501580156104ea573d6000803e3d6000fd5b5050565b600083908060018154018082558091505090600182039060005260206000200160009091929091909150908051906020019061052b929190610672565b5050600182908060018154018082558091505090600182039060005260206000200160009091929091909150908051906020019061056a929190610672565b505060028190806001815401808255809150509060018203906000526020600020016000909192909190916101000a81548173ffffffffffffffffffffffffffffffffffffffff021916908373ffffffffffffffffffffffffffffffffffffffff16021790555050505050565b600360008273ffffffffffffffffffffffffffffffffffffffff1673ffffffffffffffffffffffffffffffffffffffff1681526020019081526020016000206000815480929190600101919050555050565b6000600360008373ffffffffffffffffffffffffffffffffffffffff1673ffffffffffffffffffffffffffffffffffffffff168152602001908152602001600020549050919050565b828054600181600116156101000203166002900490600052602060002090601f016020900481019282601f106106b357805160ff19168380011785556106e1565b828001600101855582156106e1579182015b828111156106e05782518255916020019190600101906106c5565b5b5090506106ee91906106f2565b5090565b61071491905b808211156107105760008160009055506001016106f8565b5090565b90565b60008135905061072681610ba5565b92915050565b60008135905061073b81610bbc565b92915050565b600082601f83011261075257600080fd5b813561076561076082610a50565b610a23565b9150808252602083016020830185838301111561078157600080fd5b61078c838284610b52565b50505092915050565b6000602082840312156107a757600080fd5b60006107b584828501610717565b91505092915050565b6000602082840312156107d057600080fd5b60006107de8482850161072c565b91505092915050565b6000806000606084860312156107fc57600080fd5b600084013567ffffffffffffffff81111561081657600080fd5b61082286828701610741565b935050602084013567ffffffffffffffff81111561083f57600080fd5b61084b86828701610741565b925050604061085c86828701610717565b9150509250925092565b60006108728383610892565b60208301905092915050565b600061088a8383610974565b905092915050565b61089b81610b04565b82525050565b60006108ac82610a96565b6108b68185610ad1565b93506108c183610a7c565b8060005b838110156108f25781516108d98882610866565b97506108e483610ab7565b9250506001810190506108c5565b5085935050505092915050565b600061090a82610aa1565b6109148185610ae2565b93508360208202850161092685610a89565b8060005b858110156109625784840389528151610943858261087e565b945061094e83610ac4565b925060208a0199505060018101905061092a565b50829750879550505050505092915050565b600061097f82610aac565b6109898185610af3565b9350610999818560208601610b61565b6109a281610b94565b840191505092915050565b6109b681610b48565b82525050565b600060608201905081810360008301526109d681866108ff565b905081810360208301526109ea81856108ff565b905081810360408301526109fe81846108a1565b9050949350505050565b6000602082019050610a1d60008301846109ad565b92915050565b6000604051905081810181811067ffffffffffffffff82111715610a4657600080fd5b8060405250919050565b600067ffffffffffffffff821115610a6757600080fd5b601f19601f8301169050602081019050919050565b6000602082019050919050565b6000602082019050919050565b600081519050919050565b600081519050919050565b600081519050919050565b6000602082019050919050565b6000602082019050919050565b600082825260208201905092915050565b600082825260208201905092915050565b600082825260208201905092915050565b6000610b0f82610b28565b9050919050565b6000610b2182610b28565b9050919050565b600073ffffffffffffffffffffffffffffffffffffffff82169050919050565b6000819050919050565b82818337600083830152505050565b60005b83811015610b7f578082015181840152602081019050610b64565b83811115610b8e576000848401525b50505050565b6000601f19601f8301169050919050565b610bae81610b04565b8114610bb957600080fd5b50565b610bc581610b16565b8114610bd057600080fd5b5056fea265627a7a7230582063f7fe19a82408b268aa63adab88113d29ed263e4949f097e67a6ca888d30c1f6c6578706572696d656e74616cf50037516d59616e74565759653269744848363843774c33637158484d364577476d784837356e75675169713275414639516d535245516d764e4571486a43374375755748616b4c48416473504646666563506b354b763950546955325162516d596973664b525378577833504b736e37596677637932486a3245646d5746584c5a5270674b7a695262777042",
  "source": "pragma solidity ^0.5.0;\r\npragma experimental ABIEncoderV2;\r\ncontract allocate {\r\n    constructor() public payable{   \r\n    }\r\n    function() payable external {}\r\n    string[] storedData =[\"QmYantVWYe2itHH68CwL3cqXHM6EwGmxH75nugQiq2uAF9\",\"QmYisfKRSxWx3PKsn7Yfwcy2Hj2EdmWFXLZRpgKziRbwpB\",\"QmSREQmvNEqHjC7CuuWHakLHAdsPFFfecPk5Kv9PTiU2Qb\"];\r\n    string[] storedData1=[\"perfect\",\"home\",\"survivors\"];\r\n    address[] storedData2=[0xEDc30Bb67af5C126AF1400991Fa6d2F4B4760B5C,\r\n0xD267cb5E20050289a893F2a832Bd5D6DDBe08820,0x86dED0814431e6dBAA3C86b32094613f3Ed9F3A0];\r\n    mapping(address => uint) public count;\r\n    function upVote(address x) public \r\n    {\r\n        count[x] ++;\r\n    }\r\n    function getUpVote(address x) public view returns(uint)\r\n    {\r\n        return count[x];\r\n    }\r\n    function grant(address payable x) public\r\n    {\r\n        // require(address(this).balance >= 1 ether);\r\n        x.transfer(1 ether);\r\n    }\r\n    function getBalance() public view returns (uint256) {\r\n        return address(this).balance;\r\n    }\r\n    function set(string memory x, string memory y, address z) public {\r\n        storedData.push(x);\r\n        storedData1.push(y);\r\n        storedData2.push(z);\r\n    }\r\n    function get() public view returns (string[] memory, string[] memory, address[] memory) {\r\n        return (storedData, storedData1, storedData2);\r\n    }\r\n    function length() public view returns (uint)\r\n    {\r\n        return storedData.length;\r\n    }\r\n}",
  "sourcePath": "D:/project/intern/ipfs-test(failed)/contracts/allocate.sol",
  "compiler": {
    "name": "solc",
    "version": "0.5.8+commit.23d335f2.Emscripten.clang"
  },
  "schemaVersion": "3.0.16",
  "updatedAt": "2019-11-13T14:58:14.568Z",
  "devdoc": {
    "methods": {}
  },
  "userdoc": {
    "methods": {}
  }
}