{
  "contractName": "allocate",
  "abi": [
    {
      "constant": true,
      "inputs": [
        {
          "name": "",
          "type": "address"
        }
      ],
      "name": "count",
      "outputs": [
        {
          "name": "",
          "type": "uint256"
        }
      ],
      "payable": false,
      "stateMutability": "view",
      "type": "function"
    },
    {
      "inputs": [],
      "payable": true,
      "stateMutability": "payable",
      "type": "constructor"
    },
    {
      "payable": true,
      "stateMutability": "payable",
      "type": "fallback"
    },
    {
      "constant": false,
      "inputs": [
        {
          "name": "x",
          "type": "address"
        }
      ],
      "name": "upVote",
      "outputs": [],
      "payable": false,
      "stateMutability": "nonpayable",
      "type": "function"
    },
    {
      "constant": true,
      "inputs": [
        {
          "name": "x",
          "type": "address"
        }
      ],
      "name": "getUpVote",
      "outputs": [
        {
          "name": "",
          "type": "uint256"
        }
      ],
      "payable": false,
      "stateMutability": "view",
      "type": "function"
    },
    {
      "constant": false,
      "inputs": [
        {
          "name": "x",
          "type": "address"
        }
      ],
      "name": "grant",
      "outputs": [],
      "payable": false,
      "stateMutability": "nonpayable",
      "type": "function"
    },
    {
      "constant": true,
      "inputs": [],
      "name": "getBalance",
      "outputs": [
        {
          "name": "",
          "type": "uint256"
        }
      ],
      "payable": false,
      "stateMutability": "view",
      "type": "function"
    },
    {
      "constant": false,
      "inputs": [
        {
          "name": "x",
          "type": "string"
        },
        {
          "name": "y",
          "type": "string"
        }
      ],
      "name": "set",
      "outputs": [],
      "payable": false,
      "stateMutability": "nonpayable",
      "type": "function"
    },
    {
      "constant": true,
      "inputs": [],
      "name": "get",
      "outputs": [
        {
          "name": "",
          "type": "string[]"
        },
        {
          "name": "",
          "type": "string[]"
        }
      ],
      "payable": false,
      "stateMutability": "view",
      "type": "function"
    },
    {
      "constant": true,
      "inputs": [],
      "name": "length",
      "outputs": [
        {
          "name": "",
          "type": "uint256"
        }
      ],
      "payable": false,
      "stateMutability": "view",
      "type": "function"
    }
  ],
  "bytecode": "0x608060405260405180606001604052806040518060600160405280602e815260200162000d26602e913981526020016040518060600160405280602e815260200162000d82602e913981526020016040518060600160405280602e815260200162000d54602e913981525060009060036200007c92919062000150565b5060405180606001604052806040518060400160405280600781526020017f706572666563740000000000000000000000000000000000000000000000000081525081526020016040518060400160405280600481526020017f686f6d650000000000000000000000000000000000000000000000000000000081525081526020016040518060400160405280600981526020017f7375727669766f7273000000000000000000000000000000000000000000000081525081525060019060036200014992919062000150565b50620002e3565b828054828255906000526020600020908101928215620001a4579160200282015b82811115620001a357825182908051906020019062000192929190620001b7565b509160200191906001019062000171565b5b509050620001b391906200023e565b5090565b828054600181600116156101000203166002900490600052602060002090601f016020900481019282601f10620001fa57805160ff19168380011785556200022b565b828001600101855582156200022b579182015b828111156200022a5782518255916020019190600101906200020d565b5b5090506200023a91906200026f565b5090565b6200026c91905b808211156200026857600081816200025e919062000297565b5060010162000245565b5090565b90565b6200029491905b808211156200029057600081600090555060010162000276565b5090565b90565b50805460018160011615610100020316600290046000825580601f10620002bf5750620002e0565b601f016020900490600052602060002090810190620002df91906200026f565b5b50565b610a3380620002f36000396000f3fe60806040526004361061007b5760003560e01c806370284d191161004e57806370284d191461013c578063e42f70b814610165578063e942b5161461018e578063fcfe6344146101b75761007b565b806305d85eda1461007d57806312065fe0146100ba5780631f7b6d32146100e55780636d4ce63c14610110575b005b34801561008957600080fd5b506100a4600480360361009f919081019061069e565b6101f4565b6040516100b19190610864565b60405180910390f35b3480156100c657600080fd5b506100cf61020c565b6040516100dc9190610864565b60405180910390f35b3480156100f157600080fd5b506100fa61022b565b6040516101079190610864565b60405180910390f35b34801561011c57600080fd5b50610125610237565b60405161013392919061082d565b60405180910390f35b34801561014857600080fd5b50610163600480360361015e91908101906106c7565b61040c565b005b34801561017157600080fd5b5061018c6004803603610187919081019061069e565b61045e565b005b34801561019a57600080fd5b506101b560048036036101b091908101906106f0565b6104b0565b005b3480156101c357600080fd5b506101de60048036036101d9919081019061069e565b610532565b6040516101eb9190610864565b60405180910390f35b60026020528060005260406000206000915090505481565b60003073ffffffffffffffffffffffffffffffffffffffff1631905090565b60008080549050905090565b6060806000600181805480602002602001604051908101604052809291908181526020016000905b8282101561031b578382906000526020600020018054600181600116156101000203166002900480601f0160208091040260200160405190810160405280929190818152602001828054600181600116156101000203166002900480156103075780601f106102dc57610100808354040283529160200191610307565b820191906000526020600020905b8154815290600101906020018083116102ea57829003601f168201915b50505050508152602001906001019061025f565b50505050915080805480602002602001604051908101604052809291908181526020016000905b828210156103fe578382906000526020600020018054600181600116156101000203166002900480601f0160208091040260200160405190810160405280929190818152602001828054600181600116156101000203166002900480156103ea5780601f106103bf576101008083540402835291602001916103ea565b820191906000526020600020905b8154815290600101906020018083116103cd57829003601f168201915b505050505081526020019060010190610342565b505050509050915091509091565b8073ffffffffffffffffffffffffffffffffffffffff166108fc670de0b6b3a76400009081150290604051600060405180830381858888f1935050505015801561045a573d6000803e3d6000fd5b5050565b600260008273ffffffffffffffffffffffffffffffffffffffff1673ffffffffffffffffffffffffffffffffffffffff1681526020019081526020016000206000815480929190600101919050555050565b60008290806001815401808255809150509060018203906000526020600020016000909192909190915090805190602001906104ed92919061057b565b5050600181908060018154018082558091505090600182039060005260206000200160009091929091909150908051906020019061052c92919061057b565b50505050565b6000600260008373ffffffffffffffffffffffffffffffffffffffff1673ffffffffffffffffffffffffffffffffffffffff168152602001908152602001600020549050919050565b828054600181600116156101000203166002900490600052602060002090601f016020900481019282601f106105bc57805160ff19168380011785556105ea565b828001600101855582156105ea579182015b828111156105e95782518255916020019190600101906105ce565b5b5090506105f791906105fb565b5090565b61061d91905b80821115610619576000816000905550600101610601565b5090565b90565b60008135905061062f816109cb565b92915050565b600081359050610644816109e2565b92915050565b600082601f83011261065b57600080fd5b813561066e610669826108ac565b61087f565b9150808252602083016020830185838301111561068a57600080fd5b610695838284610978565b50505092915050565b6000602082840312156106b057600080fd5b60006106be84828501610620565b91505092915050565b6000602082840312156106d957600080fd5b60006106e784828501610635565b91505092915050565b6000806040838503121561070357600080fd5b600083013567ffffffffffffffff81111561071d57600080fd5b6107298582860161064a565b925050602083013567ffffffffffffffff81111561074657600080fd5b6107528582860161064a565b9150509250929050565b600061076883836107e5565b905092915050565b600061077b826108e5565b6107858185610908565b935083602082028501610797856108d8565b8060005b858110156107d357848403895281516107b4858261075c565b94506107bf836108fb565b925060208a0199505060018101905061079b565b50829750879550505050505092915050565b60006107f0826108f0565b6107fa8185610919565b935061080a818560208601610987565b610813816109ba565b840191505092915050565b6108278161096e565b82525050565b600060408201905081810360008301526108478185610770565b9050818103602083015261085b8184610770565b90509392505050565b6000602082019050610879600083018461081e565b92915050565b6000604051905081810181811067ffffffffffffffff821117156108a257600080fd5b8060405250919050565b600067ffffffffffffffff8211156108c357600080fd5b601f19601f8301169050602081019050919050565b6000602082019050919050565b600081519050919050565b600081519050919050565b6000602082019050919050565b600082825260208201905092915050565b600082825260208201905092915050565b60006109358261094e565b9050919050565b60006109478261094e565b9050919050565b600073ffffffffffffffffffffffffffffffffffffffff82169050919050565b6000819050919050565b82818337600083830152505050565b60005b838110156109a557808201518184015260208101905061098a565b838111156109b4576000848401525b50505050565b6000601f19601f8301169050919050565b6109d48161092a565b81146109df57600080fd5b50565b6109eb8161093c565b81146109f657600080fd5b5056fea265627a7a72305820ac23001c6f07a4171d6fbaf15d9826ee1fd9dfa8a902415a1115e0226f633d4b6c6578706572696d656e74616cf50037516d59616e74565759653269744848363843774c33637158484d364577476d784837356e75675169713275414639516d535245516d764e4571486a43374375755748616b4c48416473504646666563506b354b763950546955325162516d596973664b525378577833504b736e37596677637932486a3245646d5746584c5a5270674b7a695262777042",
  "source": "pragma solidity ^0.5.0;\r\npragma experimental ABIEncoderV2;\r\ncontract allocate {\r\n    constructor() public payable{   \r\n    }\r\n    function() payable external {}\r\n    string[] storedData =[\"QmYantVWYe2itHH68CwL3cqXHM6EwGmxH75nugQiq2uAF9\",\"QmYisfKRSxWx3PKsn7Yfwcy2Hj2EdmWFXLZRpgKziRbwpB\",\"QmSREQmvNEqHjC7CuuWHakLHAdsPFFfecPk5Kv9PTiU2Qb\"];\r\n    string[] storedData1=[\"perfect\",\"home\",\"survivors\"];\r\n    mapping(address => uint) public count;\r\n    function upVote(address x) public \r\n    {\r\n        count[x] ++;\r\n    }\r\n    function getUpVote(address x) public view returns(uint)\r\n    {\r\n        return count[x];\r\n    }\r\n    function grant(address payable x) public\r\n    {\r\n        // require(address(this).balance >= 1 ether);\r\n        x.transfer(1 ether);\r\n    }\r\n    function getBalance() public view returns (uint256) {\r\n        return address(this).balance;\r\n    }\r\n    function set(string memory x, string memory y) public {\r\n        storedData.push(x);\r\n        storedData1.push(y);\r\n    }\r\n    function get() public view returns (string[] memory, string[] memory) {\r\n        return (storedData, storedData1);\r\n    }\r\n    function length() public view returns (uint)\r\n    {\r\n        return storedData.length;\r\n    }\r\n}",
  "sourcePath": "D:/project/intern/ipfs-test(failed)/contracts/allocate.sol",
  "compiler": {
    "name": "solc",
    "version": "0.5.8+commit.23d335f2.Emscripten.clang"
  },
  "schemaVersion": "3.0.16",
  "updatedAt": "2019-11-13T06:14:13.561Z",
  "devdoc": {
    "methods": {}
  },
  "userdoc": {
    "methods": {}
  }
}